:020000040800F2
:10000000A81700207D020008D91300086D0F000812
:10001000AD1300087D0A0008352E0008000000001E
:100020000000000000000000000000003127000870
:10003000DD0D000800000000712000081D2D0008E3
:10004000970200089702000897020008970200082C
:10005000970200089702000897020008250E000882
:10006000970200089702000897020008970200080C
:1000700097020008BD2D00089702000897020008AB
:10008000970200089702000800000000970200088D
:1000900097020008970200089702000897020008DC
:1000A000970200089702000897020008FD2D00083B
:1000B00097020008000000009702000800000000FE
:1000C000970200080000000097020008970200084D
:1000D000970200082D2E000897020008000000007B
:1000E0000000000000000000212E00089702000818
:1000F000970200089702000897020008970200087C
:1001000097020008000000000000000097020008AD
:1001100000000000000000000000000000000000DF
:1001200000000000000000000000000000000000CF
:1001300000000000000000000000000000000000BF
:1001400000000000000000000000000000000000AF
:10015000000000000000000097020008970200085D
:10016000970200089702000800F002F800F05CF81F
:100170000AA090E8000C82448344AAF10107DA4502
:1001800001D100F051F8AFF2090EBAE80F0013F0F8
:10019000010F18BFFB1A43F0010318472C6500003C
:1001A0004C6500000A444FF0000C10F8013B13F0BE
:1001B000070408BF10F8014B1D1108BF10F8015BC0
:1001C000641E05D010F8016B641E01F8016BF9D1B3
:1001D00013F0080F1EBF10F8014BAD1C0C1B09D10A
:1001E0006D1E58BF01F801CBFAD505E014F8016B7C
:1001F00001F8016B6D1EF9D59142D6D3704700000E
:100200000023002400250026103A28BF78C1FBD81F
:10021000520728BF30C148BF0B6070471FB500F0C0
:1002200062F81FBD10B510BD00F026F91146FFF7AA
:10023000F5FF03F0A7FC00F044F903B4FFF7F2FF69
:1002400003BC00F04DF900000B49D1F800C04A682A
:100250005CF8043B1068184442F8040B8C4528BF36
:10026000A1F1DC0C8A4228BFA1F1DC02C1F800C078
:100270004A6020F0004070473C0F0020094880474A
:1002800009480047FEE7FEE7FEE7FEE7FEE7FEE778
:10029000FEE7FEE7FEE7FEE704480549054A064B90
:1002A00070470000352D000869010008A80F0020E4
:1002B000A8170020A8130020A81300200B4910B590
:1002C000A1F17C020A4CC2E93712372106E000EBAB
:1002D000104342F82130074B00FB03400B1EA1F1F5
:1002E0000101F4DC10BD0120E8E70000DC0E002075
:1002F000E119D666CD0D010010B5431C02E010F8DF
:10030000011B71B18107FAD14FF0013202C88C1A7A
:100310008C4314EAC211F9D0C01A0A0603D0C01ED9
:1003200010BDC01A10BD0A0401D0801E10BD090204
:10033000FCD0401E10BD032A40F2308010F0030CA8
:1003400000F0158011F8013BBCF1020F624498BF28
:1003500011F801CB00F8013B38BF11F8013BA2F1C5
:10036000040298BF00F801CB38BF00F8013B11F040
:10037000030300F04F80083AC0F0088051F8043BB6
:10038000083A51F804CBA0E80810F5E7121D5CBF4D
:1003900051F8043B40F8043BAFF30080D20724BF80
:1003A00011F8013B11F801CB48BF11F8012B24BF14
:1003B00000F8013B00F801CB48BF00F8012B704763
:1003C0004FF0000200B5134694469646203922BFEE
:1003D000A0E80C50A0E80C50B1F12001BFF4F7AF39
:1003E000090728BFA0E80C5048BF0CC05DF804EB1B
:1003F000890028BF40F8042B08BF704748BF20F889
:10040000022B11F0804F18BF00F8012B7047704786
:100410007047704710B5203AC0F00B80B1E8185013
:10042000203AA0E81850B1E81850A0E81850BFF4DE
:10043000F5AF5FEA027C24BFB1E81850A0E818507D
:1004400044BF18C918C0BDE810405FEA827C24BFD1
:1004500051F8043B40F8043B08BF7047D20728BF5F
:1004600031F8023B48BF11F8012B28BF20F8023BAE
:1004700048BF00F8012B7047754600F02BF8AE46D8
:1004800005006946534620F00700854618B020B5A0
:10049000FFF702FFBDE820404FF000064FF00007D5
:1004A0004FF000084FF0000B21F00701AC46ACE81C
:1004B000C009ACE8C009ACE8C009ACE8C0098D4689
:1004C000704710B50446AFF300802046BDE81040E9
:1004D000FFF7B3BE00487047440F0020704700008C
:1004E00001491820ABBEFEE72600020010B540F21D
:1004F000125004F037FE202301220021014803F0AE
:10050000F8FA10BD0004004810B501220A490B4852
:1005100000F002F901220A490848001D00F0FCF829
:1005200000F06CFA4FF47A71084604F0D7FB4FF4F0
:100530007A7003F0ADF810BD0400002014FC000830
:100540000800002010B540F2125004F00BFE1223F8
:1005500000220121094803F0CCFA122303220021D2
:10056000064803F0EDFA0221044803F0B8FA00202F
:100570000349086005F0E4FD10BD000000040048D8
:100580002400002010B5012211461B2004F01EFBA0
:1005900010BD000010B5114800681149B0FBF1F41E
:1005A000601EB0F1807F01D301200FE0601E4FF08C
:1005B000E02148610F214FF0FF3000F00FFF0020D5
:1005C0004FF0E021886107200861002008B100BFDA
:1005D000FEE70021481E00F001FF10BD440000208E
:1005E00040420F0010B540F2125004F0BBFD08234A
:1005F00000220221074803F07CFA0823032200218D
:10060000044803F09DFA08220221024803F036FA5A
:1006100010BD00000004004838B56120009000249F
:1006200011E00CE004F191006A46012105F088FC1C
:1006300028B19DF80000401CC0B2009000E0F1E736
:1006400000BF601CC4B2142CEBDB06E001F0B0FD6F
:1006500018B100200149087038BDF7E73B010020C0
:100660000FB49DF80000012803D19DF8010004B0EB
:1006700070470020FBE710B50123002203214FF053
:10068000904003F036FA10BD10B502F02DFDFFF7D3
:10069000F2FF0121084602F053FD0121022002F081
:1006A00079FE4FF46021012002F0C0FD01210846CF
:1006B00002F092FD002002F06FFD02F07FFD0722A4
:1006C0000021084602F0DCFD02F01CFD00F0A6F956
:1006D00010BD000010B501F0F3FD0446232C07DA2D
:1006E000FFF712FF1021034803F0F7F900BFFEE700
:1006F00010BD00000004004830B5034600201C4631
:1007000000BF05E054F8205041F82050451CA8B225
:100710009042F7DB30BD00002DE9FC5F07468946BB
:1007200016464FF0000A00200190002580460090F8
:10073000A7F1006BCBF38725CBF38708C8F5807052
:100740000090B7F1006F02D32E48874201D3BDE875
:10075000FC9F0098B04200DAF9E703F089F84FF007
:10076000006101EB8520CA142749FFF7C5FF00246B
:1007700017E008EB0400244951F82000401C70B138
:1007800008EB040051F8200059F82410884202D0E8
:100790000120019007E00AF1010000F0FF0A601C4F
:1007A00084B2B442E5DB00BF019801281CD1C10628
:1007B00001EB852003F00EF800200190002408E0F2
:1007C00059F8240008EB04010F4A42F82100601C8C
:1007D00084B2B442F4DB4FF0006101EB8520CA140F
:1007E000094900F087FB06E0564504D032464946E9
:1007F000384600F07FFB4FF0000A02F0E1FF00BF37
:10080000A5E7000000000108E002002010B520214B
:10081000094803F066F960B90F2002F039FF202182
:10082000054803F05EF920B9002004490860022061
:1008300010BD0320FCE70000000400482000002059
:1008400010B520210C4803F04CF998B90F2002F0A4
:100850001FFF2021084803F044F958B900BF2021A8
:10086000054803F03EF90028F9D00F2002F010FFF0
:10087000022010BD0320FCE70004004810B5064824
:10088000407840B901E000F0B5F82021034803F0BA
:1008900028F90028F7D010BD4802002000040048C5
:1008A00000B50C4801680068401E0A4A106081B912
:1008B0000949104604F0AAFC074800884FF080411F
:1008C000C8620549088800EBD07149104FF080429A
:1008D000916300BD4C0100205001002000B546216D
:1008E0004FF4E67004F0FAF95A214FF4167004F050
:1008F000F5F994214FF4397004F0F0F900BD00B51A
:1009000032214FF47A7004F0E9F932214FF4FA7091
:1009100004F0E4F900BD00B519214FF4FA7004F0B9
:10092000DDF900BD10B50948407848B9084800789D
:1009300058B9FFF76BFF022807D104F0FFFC04E071
:100940000348007808B904F0F9FC10BD4802002003
:100950003A01002001480078704700003A01002069
:1009600001490870704700003A01002008B50122D3
:1009700069460748FFF7C0FE0098401C38B905F0EB
:1009800053FB05F049FCFFF747FE00F03DF908BDB9
:1009900010FC000810B507484068074909688842FC
:1009A00007D2FFF7B1FD1021044803F096F800BF0D
:1009B000FEE710BD4802002020000020000400488F
:1009C00010B54FF4A06004F053F910BD70477047A4
:1009D00010B500F039FB10BD10B50446204600F0FC
:1009E000E7FB10BD10B500F029FC10BD10B500F0FC
:1009F0003DFC10BD10B500F001FC10BD10B500F0BD
:100A00004DFC10BD10B500F057FC10BD70B504468C
:100A10000D462946204600F067FC70BD10B5002445
:100A200003E001F04DFC601CC4B2502CF9DB10BD9A
:100A300001B5044900984864012269460248FFF75D
:100A40006BFE08BD4802002074FC00080121084A22
:100A5000117008490978517006490978491C054AFE
:100A6000117005490988024A518011460871704782
:100A700054010020730100206A01002000BFFEE73E
:100A800030B503460C46002115E0802210E04900F5
:100A900001F4803008B10B4841401878104010B183
:100AA00041F221004140104602EBD075C5F34702E8
:100AB000002AECD15B1C201EA4F10105ECB2E4D1AC
:100AC00088B230BD2110010010B50F490978481CCB
:100AD000C11700EB91718910A0EB81010A4A1170D6
:100AE0000A4811460978405C0949087000F0B2F8DC
:100AF000074800780749C87108210648FFF7C0FF7A
:100B00000449088110BD0000880100206E0100200A
:100B100072010020720A00202DE9F0410024002615
:100B2000002720490988204A1288114488B2FFF71B
:100B3000C5FB00BF22E000BF0026FFF785FB532165
:100B400090FBF1F201FB1200184908550846005DC0
:100B5000042800DA0127002509E01448005D134944
:100B6000495D884201D1012603E0681CC5B2A54257
:100B7000F3DB00BF012EDFD0601CC4B2042CDADB33
:100B80004FB90A490878C11700EB91718910A0EBA1
:100B90008101064A11700548007805490870BDE8D2
:100BA000F08100006A0100206C0100206E0100202D
:100BB0007201002010B5052403E00A21044801F069
:100BC00027FF201EA4F10101CCB2F6D110BD000018
:100BD000720A00202DE9F04105460C46A01EC1B264
:100BE0002846FFF74DFF0746601E2E5C4FF6FF704C
:100BF00000EA0626A01E285C0643B74202D1012067
:100C0000BDE8F0810020FBE708B50020009001223C
:100C100069460248FFF780FD08BD000010FC00088F
:100C200010B5142401F044FD0AE0FFF7D0FE0A21BC
:100C3000074801F0EDFE02F043F908B1012010BDB4
:100C4000201EA4F10101CCB2EFD100BFF7E70000F4
:100C5000680A002010B5002417E00E480078C4EBA5
:100C600044110D4A02EB410181F83A00C4EB4411F2
:100C700002EB41003C21FFF703FFC4EB4411064A9D
:100C800002EB41018887601CC4B2044800788442AA
:100C9000E3DB10BD72010020BC0A002075010020BA
:100CA0002DE9F04107460D4600240026312095FB32
:100CB000F0F0312195FBF1F201FB125109B1012154
:100CC00000E0002108443E49087002F041F901F0BB
:100CD000D1F900246DE00520C4EB4411394A02F833
:100CE000110039480088C4EB441102EB41014880EF
:100CF00036480088C4EB441102EB41018880344837
:100D00000078C4EB441102EB410148702C48007894
:100D1000C4EB441102EB41018871C4EB441011464D
:100D200001EB4000C4712B480078C4EB441102EB86
:100D3000410181F83A0028480078C4EB441102EBE5
:100D4000410181F83B00312D06DB3120C4EB441119
:100D500002EB4101087205E0C4EB4411194A02EBB1
:100D600041010D7200260CE017F8011BC4EB441082
:100D7000144A02EB400009308155681E85B2701C90
:100D8000C6B2C4EB44100F4901EB4000007AB042F8
:100D9000EADCC4EB44110B4A02EB41003C21FFF7B3
:100DA0006FFEC4EB4411074A02EB41018887601CC7
:100DB000C4B20348007884428DDBBDE8F0810000B6
:100DC00075010020BC0A00206A0100206C0100208F
:100DD00073010020720100207401002070470000A0
:100DE00010B507200A4908700A48008848800A4858
:100DF0000088888009480078887109480078C8719F
:100E000008210348FFF73CFE0149088110BD00009E
:100E1000720A00206A0100206C0100207401002089
:100E20007201002010B54FF4005002F0B7FC70B111
:100E30000748C07838B10AF04DF905488078044970
:100E400048700020C8704FF4005002F0A1FC10BDA3
:100E5000BC00002008B5002000900122694622480D
:100E6000FFF74AFC0098401C00283CD1FFF7BAFD70
:100E7000012001F05FFD002001F052FD002001F093
:100E8000B1FC002001F034FD002001F093FC0020B3
:100E900001F050FC154801F037FD4FF4E130FFF749
:100EA000C7FD002001F018FD012001F067FC01F0F2
:100EB00059FC002001F04AFC01F00EF90C4801F049
:100EC0001FF901F0C7FE0A48133001F0CFFE00F011
:100ED0004FF80748253001F08FFC002001F05AFC44
:100EE000002001F073FC08BD10FC000880C3C9019C
:100EF000500200202DE9F04105460E461746002419
:100F000007E056F8241005EB840002F0C3FC601CD7
:100F100084B2BC42F5DBBDE8F081000008B50122D7
:100F200069460348FFF7E8FB0098C0B208BD00001F
:100F30000CFC00080FB410B59DF80800012806D17C
:100F400001F024FB9DF8090010BC5DF814FB0020A3
:100F5000FAE7000008B5012269460348FFF7CCFB19
:100F60000098C0B208BD000008FC000800BFFEE702
:100F700000210D4A82F82D1000220B4981F82E2005
:100F800081F82F2081F8302081F8312081F832203B
:100F9000002005E00022044933310A54411CC8B244
:100FA0000F28F7DB704700004802002010B5052429
:100FB0000A4800780A49887108210948FFF760FD4E
:100FC0000749088103E00A21054801F021FD201EA0
:100FD000A4F101018CB2F6D110BD00007401002013
:100FE000720A00202DE9F0478046894616461F46C2
:100FF000DFF850A03A465146304602F00BFA4FF067
:10100000FF34002519E001E05AF82440002C05DBEC
:10101000601C305C18F805108842F5D1601C305C0B
:1010200018F80510884200D1641C781EA04203D134
:10103000E81B401CBDE8F0876D1C4D45E3DB4FF01D
:10104000FF30F7E70C02002010B500F013F9EF2293
:101050006F21002001F07AFD81225621012001F04C
:1010600075FD17226621022001F070FDC9229C2126
:10107000042001F06BFD37226621052001F066FD9A
:1010800000221146072001F061FD90226C2108200A
:1010900001F05CFD00224821092001F057FDFD22EE
:1010A0007F210A2001F052FD082200210B2001F0CF
:1010B0004DFDBD2248210D2001F048FDFF220021F9
:1010C000162001F043FD05228021172001F03EFD8E
:1010D00067220021182001F039FD5922162119201C
:1010E00001F034FDE02219211A2001F02FFD002229
:1010F00013211B2001F02AFD002218211C2001F0E1
:1011000025FD00224821202001F020FDC7223F219B
:10111000212001F01BFD00222021222001F016FDDC
:1011200000220321232001F011FD8022032124202D
:1011300001F00CFD80220321252001F007FD5A2239
:101140001146262001F002FD80220321272001F014
:10115000FDFC02224421282001F0F8FC0722B821DE
:10116000292001F0F3FCB022FD212A2001F0EEFC41
:101170000F2200212B2001F0E9FC002210212C205D
:1011800001F0E4FC522205212D2001F0DFFC0022B9
:101190001146322001F0DAFC01F02EFA01F094F948
:1011A000FFF7BAFCFFF71CFE642002F071FA10BDD5
:1011B00070B504460E4805880E4806880E4800881B
:1011C0000B4908802046FFF741FC01F0BFFB40B10E
:1011D000FFF726FD28B1FFF79FFCFFF701FE012076
:1011E00070BD03480580034806800020F8E7000032
:1011F0006A0100206C0100206801002010B50C4835
:1012000000884FF4FA7190FBF1F00A49098888428E
:1012100000D110BD064800884FF4FA7190FBF1F040
:10122000044908800A21044801F0F2FB00BFF0E7FE
:10123000680100208A010020720A002010B50020F9
:1012400001F040FB002001F033FB10BD064801888F
:101250000088401C044A10804FF6DC70814202DD99
:1012600000201146088070476801002010B500F08A
:1012700047F810BD10B504214FF0904002F02DFC4E
:101280000A2002F005FA04214FF0904002F027FCFA
:10129000322002F0FDF9012010BD000010B5044815
:1012A000007801F005FB0348007801F00BFB10BD4E
:1012B000730100207401002008B5084800880090E0
:1012C000009800040090064909880098084300909F
:1012D000012269460348FFF71FFA08BD6A01002092
:1012E0006C01002000FC000870B504460D4629463C
:1012F0002046FFF7D5FC0A2001F05CFB70BD000022
:1013000000B587B040F20C6003F02CFF40F21150A2
:1013100003F028FFE02200214FF0904002F0AEFBE6
:10132000E023002202214FF0904002F0E2FBE02394
:10133000032200214FF0904002F002FC142300220F
:1013400001214FF0904002F0D4FB1423032200212E
:101350004FF0904002F0F4FB0823002211464FF0BA
:10136000904002F0C6FB104804F0B8F8002001904D
:101370004FF48270009000200290012005904002FE
:10138000039010200690002004906946064804F05F
:10139000BDF810214FF0904002F0A1FB024804F08C
:1013A000A2F807B000BD00000030014000BFFEE71A
:1013B00010B580221146342001F0C8FB05480078A2
:1013C00040F080020021072001F0C0FB642002F001
:1013D0006DF910BD720100207047000010B50028A3
:1013E00007DA0A07140E054A00F00F031B1FD45436
:1013F00003E00A07130E024A135410BD18ED00E073
:1014000000E400E070B5054600242846FEF774FFAE
:101410001E49497E0F311D4A92F82C201144491C67
:101420001A4A92F84920022A00D100E00122114410
:10143000174A1288511A884225D100240CE013481B
:10144000407E0F3020441349085C295D884201D05A
:10145000002070BD601CC4B20C48407E0F300B49A8
:1014600091F82C100844401C084991F849100229B1
:1014700000D100E00121084405490988081AA0426A
:10148000DDDC0120E5E70020E3E700004802002062
:101490003E0100201907002010B5F948FFF7B2FF00
:1014A000012801D1AD2010BDF648FFF7ABFF0128A0
:1014B00000D1F8E7F448FFF7A5FF012801D1022089
:1014C000F1E7F248FFF79EFF012801D10520EAE786
:1014D000EF48FFF797FF012801D10620E3E7ED4829
:1014E000FFF790FF012801D10720DCE7EA48FFF76A
:1014F00089FF012801D10820D5E7E848FFF782FFDE
:10150000012801D10920CEE7E548FFF77BFF01283C
:1015100001D10A20C7E7E348FFF774FF012801D192
:101520000B20C0E7E048FFF76DFF012801D10C2038
:10153000B9E7DE48FFF766FF012801D10D20B2E7C9
:10154000DB48FFF75FFF012801D10E20ABE7D94848
:10155000FFF758FF012801D10F20A4E7D648FFF775
:1015600051FF012801D110209DE7D448FFF74AFF21
:10157000012801D1112096E7D148FFF743FF012848
:1015800001D112208FE7CF48FFF73CFF012801D19E
:10159000132088E7CC48FFF735FF012801D114203C
:1015A00081E7CA48FFF72EFF012801D115207AE70D
:1015B000C748FFF727FF012801D1162073E700F085
:1015C000D3FC012801D117206DE7C248FFF71AFFAD
:1015D000012801D1182066E7BF48FFF713FF012853
:1015E00001D119205FE7BD48FFF70CFF012801D1A9
:1015F0001A2058E7BA48FFF705FF012801D11B2040
:1016000051E7B848FFF7FEFE012801D120204AE744
:10161000B548FFF7F7FE012801D1212043E7B34881
:10162000FFF7F0FE012801D122203CE7B048FFF788
:10163000E9FE012801D1232035E7AE48FFF7E2FE9D
:10164000012801D124202EE7AB48FFF7DBFE01285B
:1016500001D1252027E7A948FFF7D4FE012801D1B1
:101660001C2020E7A648FFF7CDFE012801D11D2050
:1016700019E7A448FFF7C6FE012801D11E2012E792
:1016800000F09EFC012801D11F200CE79E48FFF7C7
:10169000B9FE012801D1262005E79C48FFF7B2FEDC
:1016A000012801D12720FEE69948FFF7ABFE01286B
:1016B00001D12820F7E600F02BFC012801D12920D8
:1016C000F1E69448FFF79EFE012801D12A20EAE6C0
:1016D0009148FFF797FE012801D12B20E3E68F48C0
:1016E000FFF790FE012801D12C20DCE600F094FCED
:1016F000012801D12D20D6E68948FFF783FE012875
:1017000001D12E20CFE68748FFF77CFE012801D1CA
:101710002F20C8E68448FFF775FE012801D130204C
:10172000C1E603F0AFFA012801D13120BBE67F48C2
:10173000FFF768FE012801D13220B4E67C48FFF7AC
:1017400061FE012801D13320ADE67A48FFF75AFE49
:10175000012801D13420A6E67748FFF753FE01287F
:1017600001D135209FE67548FFF74CFE012801D1D5
:101770004A2098E67248FFF745FE012801D14B2028
:1017800091E67048FFF73EFE012801D14C208AE621
:101790006D48FFF737FE012801D14D2083E66B48E5
:1017A000FFF730FE012801D14E207CE66848FFF7A4
:1017B00029FE012801D14F2075E66648FFF722FE79
:1017C000012801D150206EE66348FFF71BFE012877
:1017D00001D1512067E66148FFF714FE012801D1CD
:1017E000522060E65E48FFF70DFE012801D153202C
:1017F00059E65C48FFF706FE012801D1542052E665
:101800005948FFF7FFFD012801D155204BE6574805
:10181000FFF7F8FD012801D1562044E65448FFF7B0
:10182000F1FD012801D157203DE65248FFF7EAFDBE
:10183000012801D1582036E64F48FFF7E3FD012883
:1018400001D159202FE64D48FFF7DCFD012801D1D9
:101850005A2028E64A48FFF7D5FD012801D15B2030
:1018600021E64848FFF7CEFD012801D15C201AE6A9
:101870004548FFF7C7FD012801D15D2013E685E04B
:10188000A4620008AB620008B9620008BF620008E9
:10189000C6620008CD620008D4620008DB6200085E
:1018A000E2620008EA620008F2620008FA620008D8
:1018B000026300080A630008106300081863000848
:1018C00020630008286300083063000838630008BC
:1018D000406300084863000850630008586300082C
:1018E0005F630008666300086D63000874630008A6
:1018F0007B63000882630008896300089063000826
:1019000098630008A0630008A8630008B06300089B
:10191000B8630008C0630008C8630008D06300080B
:10192000D8630008DF630008E6630008ED63000881
:10193000F5630008FD630008056400080D640008F5
:10194000156400081D640008256400082D64000863
:10195000356400083D640008456400084D640008D3
:10196000546400085B64000862640008696400084D
:1019700070640008776400087F64000887640008CA
:101980008F640008976400089E640008F848FFF719
:1019900039FD012801D15E2085E5F648FFF732FDCB
:1019A000012801D15F207EE5F348FFF72BFD0128D8
:1019B00001D1602077E5F148FFF724FD012801D12E
:1019C000612070E5EE48FFF71DFD012801D162207E
:1019D00069E5EC48FFF716FD012801D1632062E5B7
:1019E000E948FFF70FFD012801D164205BE5E748D6
:1019F000FFF708FD012801D1652054E5E448FFF711
:101A000001FD012801D166204DE5E248FFF7FAFC0F
:101A1000012801D1672046E5DF48FFF7F3FC0128E4
:101A200001D168203FE5DD48FFF7ECFC012801D13A
:101A3000692038E5DA48FFF7E5FC012801D16A2082
:101A400031E5D848FFF7DEFC012801D16B202AE5FB
:101A5000D548FFF7D7FC012801D16C2023E5D348F6
:101A6000FFF7D0FC012801D16D201CE5D048FFF71D
:101A7000C9FC012801D16E2015E5CE48FFF7C2FC54
:101A8000012801D16F200EE5CB48FFF7BBFC0128F0
:101A900001D1702007E5C948FFF7B4FC012801D146
:101AA000712000E5C648FFF7ADFC012801D1722086
:101AB000F9E4C448FFF7A6FC012801D17320F2E441
:101AC000C148FFF79FFC012801D17420EBE4BF4817
:101AD000FFF798FC012801D17520E4E4BC48FFF72A
:101AE00091FC012801D17620DDE4BA48FFF78AFC99
:101AF000012801D17720D6E4B748FFF783FC0128FD
:101B000001D17820CFE4B548FFF77CFC012801D152
:101B10007920C8E4B248FFF775FC012801D17A208A
:101B2000C1E4B048FFF76EFC012801D17B20BAE484
:101B3000AD48FFF767FC012801D17C20B3E4AB4836
:101B4000FFF760FC012801D17D20ACE4A848FFF735
:101B500059FC012801D17E20A5E4A648FFF752FCDC
:101B6000012801D17F209EE4A348FFF74BFC012808
:101B700001D1802097E4A148FFF744FC012801D15E
:101B8000812090E49E48FFF73DFC012801D182208E
:101B900089E49C48FFF736FC012801D1832082E4C8
:101BA0009948FFF72FFC012801D184207BE4974856
:101BB000FFF728FC012801D1852074E49448FFF741
:101BC00021FC012801D186206DE49248FFF71AFC20
:101BD000012801D1872066E48F48FFF713FC012814
:101BE00001D188205FE48D48FFF70CFC012801D16A
:101BF000892058E48A48FFF705FC012801D18A2092
:101C000051E48848FFF7FEFB012801D18B204AE40C
:101C10008548FFF7F7FB012801D18C2043E4834876
:101C2000FFF7F0FB012801D18D203CE48048FFF74D
:101C3000E9FB012801D18E2035E47E48FFF7E2FB65
:101C4000012801D18F202EE47B48FFF7DBFB012820
:101C500001D1902027E47948FFF7D4FB012801D176
:101C6000912020E47648FFF7CDFB012801D1922096
:101C700019E47448FFF7C6FB012801D1932012E450
:101C80007148FFF7BFFB012801D194200BE46F4896
:101C9000FFF7B8FB012801D1952004E46C48FFF759
:101CA000B1FB012801D196200AE46A48FFF7AAFB9C
:101CB000012801D197200AE46748FFF7A3FB012818
:101CC00001D198200AE46548FFF79CFB012801D167
:101CD00099200AE46248FFF795FB012801D19A2078
:101CE0000AE46048FFF78EFB012801D19B200AE43B
:101CF0005D48FFF787FB012801D19C200AE45B487F
:101D0000FFF780FB012801D19D200AE45848FFF726
:101D100079FB012801D19E200AE45648FFF772FBA7
:101D2000012801D19F200AE45348FFF76BFB0128EB
:101D300001D1A0200AE45148FFF764FB012801D13A
:101D4000A1200AE44E48FFF75DFB012801D1A22043
:101D50000AE44C48FFF756FB012801D1A3200AE40E
:101D60004948FFF74FFB012801D1A4200AE48DE088
:101D7000A5640008AC640008B3640008BA640008F5
:101D8000C1640008C8640008CF640008D664000875
:101D9000DD640008E4640008EB640008F2640008F5
:101DA000F964000800650008076500080E65000872
:101DB000156500081C650008236500082A650008F1
:101DC00031650008386500083F6500084665000871
:101DD0004D650008546500085B65000862650008F1
:101DE0006965000870650008776500087E65000871
:101DF000856500088C650008936500089A650008F1
:101E0000A1650008A8650008AF650008B665000870
:101E1000BD650008C4650008CB650008D2650008F0
:101E2000D9650008E0650008E7650008EE65000870
:101E3000F5650008FC650008036600080A660008EE
:101E400011660008186600081F660008266600086C
:101E50002D660008366600083F66000847660008E1
:101E60004F660008576600085F660008666600084F
:101E70006D660008746600087B66000882660008CC
:101E80008966000890660008976600081948FFF701
:101E9000B9FA012801D1A52005E41748FFF7B2FAE5
:101EA000012801D1A62005E41448FFF7ABFA012868
:101EB00001D1A72004E41248FFF7A4FA012801D1B8
:101EC000A82004E40F48FFF79DFA012801D1A920BA
:101ED00004E40D48FFF796FA012801D1AA2004E492
:101EE0000A48FFF78FFA012801D1AB200AE4AC20A1
:101EF00008E400009D660008A3660008A9660008C3
:101F0000AF660008B5660008BB660008C166000839
:101F10001148007801281DD11048407E0F300F492C
:101F200091F82C100844401C0C4991F849100229E2
:101F300000D100E00121084409490988081A022853
:101F400008D10648407E0F300649085C242801D19C
:101F5000012070470020FCE7190000204802002003
:101F60003E010020190700201148007801281DD1EA
:101F70001048407E0F300F4991F82C100844401C47
:101F80000C4991F84910022900D100E001210844D0
:101F900009490988081A022808D10648407E0F30EE
:101FA0000649085C242801D1012070470020FCE785
:101FB00017000020480200203E01002019070020E1
:101FC0001148007801281DD11048407E0F300F497C
:101FD00091F82C100844401C0C4991F84910022932
:101FE00000D100E00121084409490988081A0228A3
:101FF00008D10648407E0F300649085C242801D1EC
:10200000012070470020FCE7180000204802002053
:102010003E010020190700201148007801281DD139
:102020001048407E0F300F4991F82C100844401C96
:102030000C4991F84910022900D100E0012108441F
:1020400009490988081A022808D10648407E0F303D
:102050000649085C242801D1012070470020FCE7D4
:102060001A000020480200203E010020190700202D
:102070007047000005480078401C04490870084675
:10208000007808B901200870704700007301002033
:1020900010B5002003490870487004F015F803F0EB
:1020A000E9FF10BD440A002009494A7809494A72EB
:1020B000002007E00649891C0A5C06490A310A54D7
:1020C000411CC8B2024949788142F3DC70470000E4
:1020D000940200204802002008B500200749087239
:1020E000002106484172008BADF80000034808301B
:1020F0000FC8FEF71FFF0149487608BD48020020BF
:102100002DE9F04385B0074614216846FEF758F9DB
:10211000DFF898801225B9462846EA1705EB927237
:1021200092102946EB1705EB93739B10A5EB8303E5
:102130000BB1012300E000231A44D6B200242AE0A8
:10214000E11704EB917189105DF8211019F8042052
:1021500011432046E21704EB927292104DF82210C0
:10216000601CC11700EB91718910A0EB810171B166
:10217000E11704EB917189105DF8211009022046E6
:10218000E21704EB927292104DF8221001E008F170
:102190000408601CC4B2B4EB860FD1DB324669463A
:1021A0000248FEF7B9FA05B0BDE8F0832CFC000840
:1021B0003EB57E208DF8000000208DF8010009203A
:1021C0008DF8020001208DF8030000208DF8040036
:1021D0008DF805008DF8060005210DF1020001F0D3
:1021E000BBF9054628128DF80700E8B28DF8080003
:1021F00001201149087000201049087000240EE0E9
:102200001DF804100E4803F090FC00BF40F2067168
:102210000B4803F0B4FC0028F8D0601CC4B2092CB1
:10222000EEDBC82001F034FA064803F033F908B1B8
:1022300001203EBD0020FCE73B0100203C010020C6
:1022400000380140D5090020F8B506460C46154671
:102250001CE00121304603F001F8B8B10C480079C8
:1022600000909DF80000204300909DF80000A843D6
:1022700000906A460121304603F062FE30B1FFF75C
:1022800097FF18B1002003490870F8BDE1E700008E
:10229000D50900203B01002013B504460CE001AA3B
:1022A0000121204603F04CFE30B1FFF781FF18B149
:1022B0000020024908701CBDF1E700003B0100202E
:1022C00070B5012001F050F800BF022000F0CEFFF1
:1022D0000028FAD001F042F80446C01704EB107051
:1022E00000110A490988C1EB0115E91705EB1171C5
:1022F00000EB2110054908800846008800EB80119A
:10230000C81701EB1050001370BD000052010020EF
:1023100008B5012269460248FEF7EEF9009808BDAB
:1023200074FC000808B5012269460348FEF7E4F989
:102330000098C0B208BD000024FC000808B50122C6
:1023400069460348FEF7D8F90098C0B208BD0000FE
:1023500040FC000810B5052202490348FEF7CCF9FD
:1023600010BD00003000002080FC000808B50122EC
:1023700069460348FEF7C0F90098C0B208BD0000E6
:1023800094FC000810B500F073F92649087000F0BD
:102390001DF92449487000F059F822498870FFF768
:1023A000C1FF2049C87000F01DF91E49486001F1C5
:1023B000080000F0C5F8FFF7C1FF1A49887601F15F
:1023C0001B0000F02FF917482D3000F057F800F0EF
:1023D00031F8144981F84200FFF79AFF1149486427
:1023E00000F0E8F80F4981F8480000F03BF80D498B
:1023F00081F84900FFF7AEFFFFF7B8FF094981F800
:102400004A0000F045FE00F01DFE01220649074883
:10241000FEF772F9012206490448001DFEF76CF927
:1024200010BD0000480200200400002014FC000839
:102430000800002008B5012269460348FEF75CF950
:102440000098C0B208BD000070FC000808B5012269
:1024500069460348FEF750F90098C0B208BD000075
:1024600020FC000808B5012269460348FEF744F93C
:102470000098C0B208BD00007CFC00082DE9F843BC
:1024800005462E460F4F4FF0060815E0012269461B
:102490003846FEF731F9032406E0009830550098DD
:1024A000000A0090601E44B2002CF6DA3F1D361D73
:1024B000A8F1010000F0FF08B8F1000FE6DCBDE86C
:1024C000F883000058FC000810B5FEF727FD03490B
:1024D0000870FEF73FFD0249087010BD730100202F
:1024E0007401002070B5054610214FF0904001F0B6
:1024F000F4FA012001F0DAF8B22000F043FB0120E9
:1025000001F0D4F8FF2000F03DFBC6B2002408E043
:10251000012001F0CBF8FF2000F034FB2855601CAF
:10252000C4B2B442F4DB012001F0C0F810214FF036
:10253000904001F0D4FA012001F0B8F8304670BDA7
:102540002DE9F84305462E460F4F4FF0050815E0DC
:10255000012269463846FEF7CFF8032406E00098CA
:1025600030550098000A0090601E44B2002CF6DA44
:102570003F1D361DA8F1010000F0FF08B8F1000F63
:10258000E6DCBDE8F88300002CFC0008002007E032
:1025900006490A5C064B00F10F015A54411CC8B2AF
:1025A00002490A39497A8142F2DC7047520200201E
:1025B0001907002008B5012269460348FEF79CF878
:1025C0000098C0B208BD000078FC000808B50122E0
:1025D00069460348FEF790F80098C0B208BD0000B5
:1025E0001CFC000808B5012269460248FEF784F881
:1025F000009808BD28FC000808B501226946064875
:10260000FEF77AF80549009808800098000C0090C1
:1026100003490098088008BD00FC00086C010020F8
:102620006A0100202DE9F84305462E460F4F4FF072
:10263000050815E0012269463846FEF75DF80324D7
:1026400006E0009830550098000A0090601E44B2E1
:10265000002CF6DA3F1D361DA8F1010000F0FF083E
:10266000B8F1000FE6DCBDE8F883000044FC000888
:1026700008B5012269460348FEF73EF80098C0B24B
:1026800008BD000004FC000810B508214FF0904080
:1026900001F027FA012809D1302000F02BF800F4CE
:1026A000004008B9012010BDFEF782FE0020FAE7C5
:1026B00010B503200B4908700B48007848700A4891
:1026C0000078401C0849087008480088054948807F
:1026D00007480088888008210248FEF7D1F901499F
:1026E000088110BD680A0020730100206A010020E3
:1026F0006C01002070B5044644F0800410214FF0B6
:10270000904001F0EAF9204600F03CFAFF2000F08A
:1027100039FA4FF6FF7101EA0025FF2000F032FA86
:10272000054310214FF0904001F0D9F9284670BDC3
:102730007047000038B504460094012269460248FB
:10274000FDF7EAFF38BD000024FC000838B5044658
:102750000094012269460248FDF7DEFF38BD000003
:1027600040FC000810B5034C052221460248FDF745
:10277000D3FF10BD3000002080FC000838B50446AF
:102780000094012269460248FDF7C6FF38BD0000EB
:1027900094FC000801B59DF80000044981F842004E
:1027A000012269460248FDF7B7FF08BD4802002034
:1027B00070FC000838B504460094012269460248BE
:1027C000FDF7AAFF38BD000020FC000838B504461C
:1027D0000094012269460248FDF79EFF38BD0000C3
:1027E0007CFC000801B5012269460248FDF794FF10
:1027F00008BD000018FC00082DE9F04387B007462B
:10280000182101A8FDF7DCFDDFF8A0801525B946E9
:102810002846EA1705EB927292102946EB1705EB52
:1028200093739B10A5EB83030BB1012300E00023FE
:102830001A44D6B200242DE0E11704EB91718910FF
:1028400001AA52F8211019F8042011432046E2177A
:1028500004EB9272921001AB43F82210601CC11776
:1028600000EB91718910A0EB810179B1E11704EBC4
:102870009171891001AA52F8211009022046E2172D
:1028800004EB9272921043F8221001E008F1040860
:10289000601CC4B2B4EB860FCEDB324601A90348FC
:1028A000FDF73AFF07B0BDE8F083000058FC0008D0
:1028B00001B5012269460248FDF72EFF08BD000060
:1028C0000CFC000801B5012269460248FDF724FF0F
:1028D00008BD000008FC000838B504460094012239
:1028E00069460248FDF718FF38BD000078FC000873
:1028F00038B504460094012269460248FDF70CFFF2
:1029000038BD00001CFC000838B5044600940122C4
:1029100069460248FDF700FF38BD000028FC0008AA
:1029200001B5012269460248FDF7F6FE08BD000028
:1029300014FC000838B50446009401226946024898
:10294000FDF7EAFE38BD000004FC000810B546247F
:102950001FE0FEF73CF814490978481CC11700EB4A
:1029600091718910A0EB81010F4A11701046007817
:102970000E49487106210D48FEF782F80B49C880C0
:1029800008210A4800F044F800F056FA08B1012086
:1029900010BD201EA4F10101CCB2DAD104480078A8
:1029A000014908700020F3E7720100205401002063
:1029B0006E01002010B5044601200D4908700FE09B
:1029C000FEF7F8F80A48007800F070F818B1FEF742
:1029D000EDFA012010BDFEF777F8002004490870D9
:1029E000201EA4F10101CCB2EAD100BFF2E7000041
:1029F0008901002010B505480078012802D100F0B7
:102A000085F801E005F070FB10BD000048020020D1
:102A10002DE9F04107460D4600BF00221146072070
:102A200000F094F880221146342000F08FF800BFA7
:102A300010214FF0904001F050F8012000F036FED8
:102A4000322000F09FF8284600F09CF8002404E0B3
:102A5000385D00F097F8601CC4B2AC42F8DB10217E
:102A60004FF0904001F03BF80F4802780121072019
:102A700000F06CF8012000F00BFE4FF47A7608E0CD
:102A8000FDF7A5FF701E86B2012000F001FE06B919
:102A900006E008214FF0904001F023F80028EFD025
:102AA00000BFBDE8F08100007201002070B506464D
:102AB0001348056800241DE0FDF789FF05F00100BB
:102AC00090B1C4EB44110F4A02EB41003E21FFF7E5
:102AD0009FFF26B10C480078401EA04204DC00F0A5
:102AE00053FA08B1012070BD6D080DB90020FAE756
:102AF000601CC4B2044800788442DDDB0020F2E7A9
:102B000078010020BC0A00207501002010B50B4898
:102B100001880B48FDF77AFF38B1FDF7FCFE094844
:102B20000068401C0749086006E0FDF7D7FE06482C
:102B30000068401C0449086010BD00003E010020F0
:102B400019070020040000200800002070B5064688
:102B50000C46154610214FF0904000F0BEFF0120BA
:102B600000F0A4FD304600F00DF8204600F00AF811
:102B7000284600F007F810214FF0904000F0AFFF1A
:102B800070BD000070B5044600250BE0012000F088
:102B90008DFD2846691C8DB2B0F5704F02DDFEF741
:102BA00065FB05E00221124802F0A8FC0028EDD0E8
:102BB00000BF21460E4802F09FFC0BE0012000F010
:102BC00075FD2846691C8DB2B0F5704F02DDFEF729
:102BD0004DFB05E00121064802F090FC0028EDD0F5
:102BE00000BF034802F084FC0646304670BD00007A
:102BF0000030014009494A79094981F83220002012
:102C000007E00649891D0A5C054933310A54411C15
:102C1000C8B2024949798142F3DC704704070020B9
:102C20004802002009494A7809490A77002007E04C
:102C30000649891C0A5C06491D310A54411CC8B268
:102C4000024949788142F3DC70470000A602002067
:102C50004802002000200449C8760021024801777C
:102C600080F82C1070470000480200202DE9F04346
:102C700085B0074614216846FDF7A2FBDFF898806F
:102C80001225B9462846EA1705EB9272921029469A
:102C9000EB1705EB93739B10A5EB83030BB101239B
:102CA00000E000231A44D6B200242AE0E11704EB26
:102CB000917189105DF8211019F804201143204604
:102CC000E21704EB927292104DF82210601CC117AB
:102CD00000EB91718910A0EB810171B1E11704EB58
:102CE000917189105DF8211009022046E21704EB6A
:102CF000927292104DF8221001E008F10408601C55
:102D0000C4B2B4EB860FD1DB324669460248FDF708
:102D100003FD05B0BDE8F08344FC000810B504488D
:102D20000068401C0249086000F0CAFC10BD0000A9
:102D30002000002010B51D48006840F001001B492C
:102D4000086000BF1948006800F002000028F9D0B0
:102D500016484068164908401449486008464068CB
:102D600014490840114948600846406820F4400072
:102D7000486008460068104908400C490860084649
:102D8000C06A20F00F00C8620846006B40F2431191
:102D90008843064908630846406B20F001004863F9
:102DA0000020886002F01EFC10BD000000100240F0
:102DB0000C00FF08FFFFC277FFFFF2FE10B50121F4
:102DC0000B4802F027FE88B1FEF740FA0948006878
:102DD000401C0849086008480068401C0649086013
:102DE000FDF75EFD0121024802F010FE10BD00005B
:102DF000002C0140280000202400002010B540F2E3
:102E00000571054802F0BBFE012804D100200349EA
:102E1000086000F05FFD10BD003801402800002070
:102E200010B54FF4802000F0B3FC10BD10B508F0D1
:102E300093F810BD00BFFEE770B5FEF7B9FA0024A5
:102E400009E0012000F024FC2046611C8CB23228ED
:102E500001DD002070BDFFF717FC0028F1D01348FA
:102E6000FFF740FB054629461048FDF7B3FED0B1F9
:102E70000E480F4908600846006880880D49098897
:102E8000884210D10A480068007802280BD108480F
:102E9000006840880849088005480068C0790749EB
:102EA00008700120D6E70020D4E700007C0A00204B
:102EB0005C0100206A0100206C01002072010020EA
:102EC00070B5FEF775FA002409E0012000F0E0FB80
:102ED0002046611C8CB2322801DD002070BDFFF756
:102EE000D3FB0028F1D01548FFF7FCFA0546294628
:102EF0001248FDF76FFEF0B110481149086008460E
:102F000000680078042816D10846006840780D490A
:102F1000497888420FD10A48006880880A490988A0
:102F2000884208D1064800684088084909888842D4
:102F300001D10120D2E70020D0E700007C0A002068
:102F400060010020680A00206A0100206C01002056
:102F500001210B4A116000200BE009490968490072
:102F6000074A11601146096841F001011160411CD6
:102F7000C8B204490978491E8142EEDC704700005E
:102F8000780100207501002070B5FEF711FA0024C9
:102F900009E0012000F07CFB2046611C8CB2142863
:102FA00001DD002070BDFFF76FFB0028F1D01E4847
:102FB000FFF798FA054629461B48FDF70BFE70B34C
:102FC00019481A49086008460068C08818490988E5
:102FD000884227D1154800688088164909888842A8
:102FE00020D11248006880681349086008460068CC
:102FF000A8B90E48006840781049097888420FD176
:103000000A48006840780E4908700020074909689E
:10301000487008200549096808700120C2E701E0EE
:103020000020BFE70020BDE77C0A002064010020EB
:103030006A0100206C01002078010020730100204B
:10304000740100200F49097A012914D1002008E0F9
:103050000C490A310A5C0C4B00F10F015A54411C17
:10306000C8B20849497A8142F2DC0649497E0F31EB
:10307000064A118004E00349497E0F31034A11805A
:103080007047000048020020190700203E01002080
:10309000064890F8480000F0010018B102200449E9
:1030A000087002E0002002490870704748020020C2
:1030B0001907002010B501460120002206E08B5CB4
:1030C000084C2354431CD8B2531CDAB28B5C002B3F
:1030D000F5D104E00023034C2354431CD8B20E283E
:1030E000F8DB10BD1907002010B5042001F078FEB0
:1030F00040F2115002F036F840F2096002F032F866
:1031000010BD00000D48006840F008000B49086041
:1031100000BF0A48006800F008000028F9D10748FD
:10312000006840F004000549086000BF03480068DB
:1031300000F004000028F9D1704700000824014085
:10314000012802D0022821D10EE0124A13684A1E3B
:1031500023EA02520F4B1A601A4613684A1E43EACA
:1031600002520C4B1A6012E00A4A0C3213684A1ED3
:1031700023EA0252074B0C331A601A4613684A1EA0
:1031800043EA0252034B0C331A6000E000BF00BF59
:10319000704700002C24014030B10749096841F410
:1031A0000061054A116005E00349096821F40061E6
:1031B000014A11607047000008240140054800687A
:1031C00000F0010028B90348006840F001000149FF
:1031D000086070470824014091B100F001022AB153
:1031E000114A126842F480120F4B1A6000F002027A
:1031F000C2B10D4A126842F400420B4B1A6011E052
:1032000000F001022AB1084A126822F48012064B2B
:103210001A6000F002022AB1034A126822F4004246
:10322000014B1A607047000008240140012802D0B9
:10323000022816D10AE00C4A126822F460220A4BD6
:103240001A601A4612680A431A600BE0064A1268AE
:1032500022F4E042044B1A601A4612680A431A60CC
:1032600000E000BF00BF7047082401400146002075
:10327000024A12680A4002B101207047002401404E
:1032800070B51446122900D1002106280ED2324D05
:103290002A6800EB80061F25B540AA4300EB800595
:1032A00001FA05F52A432C4D2A602AE00C2812D297
:1032B000294D2D1F2A68851F05EB85061F25B54062
:1032C000AA43851F05EB850501FA05F52A43224D22
:1032D0002D1F2A6015E0102813D21F4D083D2A68C3
:1032E000A0F10C0505EB85061F25B540AA43A0F10A
:1032F0000C0505EB850501FA05F52A43164D083D39
:103300002A600A2910D2144D243D2B6801EB410696
:103310000725B540AB4301EB410504FA05F52B4306
:103320000D4D243D2B6015E0122913D20A4D283D86
:103330002B68A1F10A0505EB45060725B540AB430F
:10334000A1F10A0505EB450504FA05F52B43024DED
:10335000283D2B6070BD0000342401400148006806
:1033600080B270474C24014000F0010129B10849A6
:10337000096841F48001064A116000F0020129B198
:103380000349096841F40011014A116070470000C7
:1033900008240140E9B100F480722AB11C4A126885
:1033A00042F480721A4B1A6000F480622AB1184A03
:1033B000126842F48062164B1A6000F002022AB3CF
:1033C000134A121D126842F00202114B1B1D1A60B3
:1033D0001CE000F480722AB10D4A126822F4807257
:1033E0000B4B1A6000F480622AB1094A126822F479
:1033F0008062074B1A6000F002023AB1044A121DC3
:10340000126822F00202024B1B1D1A607047000076
:103410000424014070B503460C464FF0FF3525608B
:103420002846012112E001E054F82000002804DBC6
:10343000451C5D5D5E5CB542F6D1451C5D5D5E5C24
:10344000B54200D1401C44F82100491C551E8D4254
:10345000E9DA70BD3D4A92F84220012A04D0022ADE
:1034600022D0032A6ED13FE0002013E0374A527E7B
:103470000F320244364B995C612909DB7A2907DC5B
:10348000A1F12002D1B2314A527E0F320244995446
:10349000421C90B22D4A527E0F322E4B1B885B1C71
:1034A0009A1A8242E2DC4EE0002013E0274A527E64
:1034B0000F320244264B995C412909DB5A2907DC6B
:1034C00001F12002D1B2214A527E0F3202449954B6
:1034D000421C90B21D4A527E0F321E4B1B885B1C51
:1034E0009A1A8242E2DC2EE0002021E0174A527E46
:1034F0000F320244164B995C61290ADB7A2908DCF9
:10350000A1F12002D1B2114A527E0F3202449954E5
:103510000CE041290ADB5A2908DC01F12002D1B272
:103520000A4A527E0F320244094B9954421C90B20F
:10353000064A527E0F32074B1B885B1C9A1A824246
:10354000D4DC00E000BF00BF70470000480200204C
:10355000190700204201002030B503460C46002127
:1035600015E0802210E0490001F4803008B10B48DA
:1035700041401878104010B141F2210041401046FE
:1035800002EBD075C5F34702002AECD15B1C201E6C
:10359000A4F10105ECB2E4D188B230BD21100100E4
:1035A00070B5384890F82D00012818D1002411E09A
:1035B00000213448407E0F302044334A11543148B2
:1035C000407E0F30204431490988884200DB70BDBD
:1035D000601CC4B22B4890F82E00A042E8DC2948B9
:1035E00090F82F00012817D1002410E0002027496F
:1035F0000988091B244A505424480088011B21488B
:10360000407E0F30814200DCE1E7601CC4B21D48FF
:1036100090F83000A042E9DC27E01A4A92F83230F4
:10362000527E0F32194E3688761CB11A154A527ED8
:103630000F32154E9019134A3332FDF7D3FC05B201
:10364000002D11DB002409E000210E48407E0F30E0
:10365000284420440C4A1154601CC4B2094890F814
:103660003200A04201DDEFE7B1E7064890F83100F3
:10367000012804D1034890F832000028CDDC00BFB7
:10368000A5E70000480200201907002042010020A1
:103690004FF47A714143044A116000BF024909683E
:1036A0000029FBD1704700002C000020034908606E
:1036B00000BF024909680029FBD170472C00002097
:1036C0000448006820B103480068401E01490860B2
:1036D000704700002C00002010B52C4B1B68834362
:1036E0002A4C2360231D1B688343241D2360231D54
:1036F0001B688343241D2360231D1B688343241DF3
:10370000236011B101290ED105E0204B1B68034352
:103710001E4C236008E01D4B1B1D1B6803431B4C04
:10372000241D236000E000BF00BF22B1012A0FD09A
:10373000022A27D119E0154B08331B680343134CA9
:1037400008342360231D1B688343241D23601AE073
:103750000E4B08331B6883430C4C08342360231D35
:103760001B680343241D23600DE0084B08331B68CE
:103770000343064C08342360231D1B680343241DA8
:10378000236000E000BF00BF10BD00000004014046
:1037900001490860704700001404014001460748D1
:1037A000006800EA010205481438006800EA0103D5
:1037B00012B10BB1012070470020FCE71404014056
:1037C0000348006940F0800001490861704700002B
:1037D0000020024030B504464FF4702000F01EF87F
:1037E0000546B5B90C48006940F002000A49086175
:1037F00008464461006940F0400008614FF47020C1
:1038000000F00CF805460448006920F00200024967
:103810000861284630BD00000020024000B5034684
:10382000012200BF00F00CF802465B1E012A01D104
:10383000002BF7D1012A00D10422104600BD000060
:1038400000200A49C96801F0010109B101200CE01A
:103850000649C96801F0100109B1032005E00349D8
:10386000C96801F0040101B1022070470020024044
:103870000548006900F0800020B104480249486012
:10388000034848607047000000200240230167455C
:10389000AB89EFCD70B504460D464FF47020FFF7AD
:1038A000BDFF06468EB90A48006940F0010008498C
:1038B000086125604FF47020FFF7B0FF064604480A
:1038C000006920F0010002490861304670BD000027
:1038D0000020024010B55A48007800287BD1594892
:1038E000008840F2BB21884276DA574802F018F986
:1038F0005649087008460178524802880088401CE2
:10390000504B18805248815452480078002846D1C4
:103910005148407E0F304E49085C032830D14E4854
:10392000407E123019460988884228D14A48407E94
:1039300010304749085C49490880084600884FF61E
:10394000FF7101EA0020454908804348407E11305C
:103950003F49085C414909880843404908803E487E
:10396000407E0F3009880844801E3D4908803A484F
:10397000407E0F30194608800120364908705DE00E
:103980003548407E0F302F490880002031490870AB
:103990003249088033490870334908704EE002F01C
:1039A00049F800B110BD2D480088401E80B22B4957
:1039B000088090B12B48007800283FD12348007838
:1039C000234988731F480088401E1E490880012033
:1039D0002449087032E022E012E001F093FC02F08A
:1039E00041FC02F091F902F053FA01201E490870DF
:1039F00002211E4800F073F800201D4908601DE0F8
:103A00001548407E0F300F4908800020114908708A
:103A10001249088013490870134908700EE00A48DB
:103A200002F07EF8094908700846027811480178CA
:103A30000078401C0F4B18700F48425400BFB1E78C
:103A40003B0100203E010020003801403D010020E4
:103A500019070020440100204802002040010020F6
:103A600042010020450100203A01002000040048E6
:103A7000240000203C010020D5090020F0B50346B9
:103A80001C6A5D6A00200DE00126864016403EB1AA
:103A900087000F26BE40B443860001FA06F6344381
:103AA000461CB0B20828EFD3082011E0012686405A
:103AB00016405EB1A0F10806B7000F26BE40B54320
:103AC000A0F10806B60001FA06F63543461CB0B26E
:103AD0001028EBD31C625D62F0BD8162704781618A
:103AE000704702461069084008B101207047002065
:103AF000FCE7F0B504460D4616462168E268002052
:103B000019E0012787401F409FB14FEA400C03276F
:103B100007FA0CF7B943470005FA07F739434FEAAC
:103B2000400C032707FA0CF7BA43470006FA07F7D9
:103B30003A43471CB8B21028E3D32160E260F0BDDD
:103B4000F0B50C461546012C03D146681E4346606D
:103B500002E046689E434660826800210DE001262F
:103B60008E401E403EB14F000326BE40B2434E0081
:103B700005FA06F632434E1CB1B21029EFD382602B
:103B8000F0BD000086B0FCF71BFFFDF763F9FEF700
:103B9000F9FBFEF77DFAFCF7FDFCFCF775FDFCF781
:103BA00025FFFCF715FFFCF7A1FC04F08DFAFCF7EC
:103BB000C9FC10211A48FFF792FFFCF7D7FEFCF76B
:103BC0009EFEFCF703FF00F0F6BFFCF700FFFCF7DA
:103BD00081FD80211248FFF780FFFCF7DBFEFCF738
:103BE00009FFFCF79FFEFCF7B5FE0028EBD0FDF7C0
:103BF00053FC054600200B4908700B4908700B491F
:103C000008700B4908700B4908700B4908700B4984
:103C100008700B490860AE2D80F0BC8712E00000F0
:103C200000040048170000201800002019000020A0
:103C30001A0000201B0000201C0000201D00002096
:103C400020000020A90000BF794449688F4400008B
:103C5000440F0000E002000008030000440F0000D1
:103C6000440F0000300300004E0300006203000018
:103C7000760300008A0300009E030000B2030000E8
:103C8000C6030000DA030000EE0300000204000097
:103C900012040000300400004E0400006C04000018
:103CA0008A040000B4040000DE040000F0040000F8
:103CB000420500005405000066050000780500007C
:103CC0000E060000440600007A0600008C06000084
:103CD0008A050000A0050000B6050000CC05000024
:103CE000E2050000F80500002A0700004007000078
:103CF0005607000068070000C0070000D407000056
:103D0000E8070000FA0700005208000066080000FB
:103D10007A0800008C080000C8080000D4080000E1
:103D2000E0080000EC080000440F0000440F000011
:103D3000440F0000440F0000440F0000440F000037
:103D4000440F0000440F0000440F0000440F000027
:103D5000440F0000440F0000440F0000440F000017
:103D6000440F0000440F0000440F0000440F000007
:103D7000440F0000440F0000F80800000E09000086
:103D8000240900003A0900005009000066090000FB
:103D90007C09000092090000A8090000B809000091
:103DA000C8090000D8090000E8090000F80900006F
:103DB000080A0000180A0000280A0000380A00005B
:103DC000480A0000580A0000680A0000760A00004D
:103DD000840A0000920A0000A00A0000B00A000055
:103DE000C00A0000EC0A0000FA0A0000080B0000FC
:103DF000160B0000260B0000360B0000440B0000E1
:103E0000520B0000600B00006E0B00007E0B0000E8
:103E10008E0B00009C0B0000AA0B0000B80B0000EA
:103E2000D60B0000C60B0000E60B0000F60B0000EE
:103E3000060C0000160C0000260C0000340C0000DC
:103E4000420C0000500C00005E0C00006E0C0000E4
:103E50007E0C00008C0C00009A0C0000A80C0000E6
:103E6000B60C0000C60C0000D60C0000E40C0000EC
:103E7000F20C0000000D00000E0D00001E0D0000F1
:103E80002E0D00003C0D00004A0D0000580D0000F2
:103E9000660D0000760D0000860D0000940D0000F8
:103EA000A20D0000B00D0000BE0D0000CE0D000000
:103EB000DE0D0000EE0D0000FE0D00000E0E0000F5
:103EC0001E0E00002C0E00003A0E0000480E0000EE
:103ED000560E0000660E0000760E0000860E0000F2
:103EE000960E0000AA0E0000BE0E0000D20E0000CA
:103EF000E60E0000FA0E00000E0F0000220F000078
:103F0000360F0000B80200000020FE490860FE499C
:103F100008600122FB49FD48FCF7FEFB0122FA493B
:103F2000FA48001DFCF7F8FBFCF7F5FC00F033BE87
:103F30008021F748FFF7D3FD0020FCF74DFD20B1AD
:103F4000FCF760FDFCF7E7FC01E0FCF7C7FC802113
:103F5000EF48FFF7C2FDE9E78021ED48FFF7BFFD1D
:103F60000120FCF739FD20B1FCF74CFDFCF7D3FC38
:103F700001E0FCF7B3FC8021E548FFF7AEFDD5E793
:103F8000FEF776FBE34908700846007880F00100F0
:103F900008700878FEF7CEFCFCF7BDFCC6E70020F1
:103FA000FEF7A6FCFEF712FBDA494870FCF7B3FCFB
:103FB000BCE70120FEF79CFCFEF708FBD5494870E2
:103FC000FCF7A9FCB2E70020FEF7B4FBFEF7AAF964
:103FD000D049C870FCF79FFCA8E70120FEF7AAFBB8
:103FE000FEF7A0F9CB49C870FCF795FC9EE7CA48DC
:103FF000FEF78AFCFEF7F6FAC6494860FCF78BFC30
:1040000094E7C648FEF780FCFEF7ECFAC149486029
:10401000FCF781FC8AE7C248FEF776FCFEF7E2FA7D
:10402000BC494860FCF777FC80E7BE48FEF76CFCB3
:10403000FEF7D8FAB7494860FCF76DFC76E7BA4856
:10404000FEF762FCFEF7CEFAB2494860FCF763FC6B
:104050006CE7FCF759FA1021AD48FFF73EFD00BFB1
:10406000FEE7AC4890F8480040F00100A94981F80B
:10407000480091F84800FEF72FFCFCF74CFC55E790
:10408000A44890F8480020F00100A24981F84800B7
:1040900091F84800FEF720FCFCF73DFC46E79D4800
:1040A00090F8480040F002009A4981F8480091F8E1
:1040B0004800FEF711FCFCF72EFC37E7954890F816
:1040C000480020F00200934981F8480091F8480028
:1040D000FEF702FCFCF71FFC28E701208D4908725F
:1040E0000846008BADF80000084608300FC8FCF702
:1040F00021FF8849487601F10800FEF701F8FCF736
:104100000AFC13E70020834908720846008BADF8CB
:104110000000084608300FC8FCF70CFF7D494876C0
:1041200001F10800FDF7ECFFFCF7F5FBFEE60120CE
:104130007E49087000207E494870FCF7ECFBF5E6EC
:104140007B4840780F2823D20120784908707148B5
:10415000407E10307749095C75484278801C815454
:10416000801E4078401C72494870FDF79DFF6948E9
:10417000008BADF80000674808300FC8FCF7DAFE86
:104180006449487601F10800FDF7BAFFFCF7C3FB6C
:10419000CCE601205F498876887EFEF7D7FAFCF7E7
:1041A000BAFBC3E600205B498876887EFEF7CEFA2C
:1041B000FCF7B1FBBAE60020564981F84A00FEF749
:1041C000DDFAFCF7A8FBB1E60120524981F84A006C
:1041D000FEF7D4FAFCF79FFBA8E600204D4981F8D2
:1041E000490091F84900FEF7F1FAFCF794FB9DE6CF
:1041F0000120484981F8490091F84900FEF7E6FAA4
:10420000FCF789FB92E60220424981F8490091F8C7
:104210004900FEF7DBFAFCF77EFB87E603203D4909
:1042200081F8490091F84900FEF7D0FAFCF773FBDA
:104230007CE60420374981F8490091F84900FEF7EF
:10424000C5FAFCF768FB71E60520324981F84900A0
:1042500091F84900FEF7BAFAFCF75DFB66E601202B
:104260002C49C8760846B0F82B00ADF800001222A1
:104270001B3101A8FCF75FF801A80FC8FCF7F0F9A3
:10428000244981F82C0001F11B00FEF7EFFCFCF73C
:1042900042FB4BE600201F49C8760846B0F82B00C9
:1042A000ADF8000012221B3101A8FCF744F801A868
:1042B0000FC8FCF7D5F9174981F82C0001F11B0054
:1042C000FEF7D4FCFCF727FB30E601201A49087002
:1042D00000201A494870FCF71EFB27E61748407873
:1042E0000F2849D20120144908700A48407E103036
:1042F0001049095C11484278801C8154801E407826
:10430000401C1DE0040000200800002014FC0008F0
:10431000000400484802002080C3C90100879303BD
:1043200000A3E1110046C323008C8647170000203C
:10433000E00600201907002018000020F2060020E7
:10434000F7494870FEF76EFCF648B0F82B00ADF860
:1043500000001222F3491B3101A8FBF7ECFF01A872
:104360000FC8FCF77DF9EF4981F82C0001F11B0023
:10437000FEF77CFCFCF7CFFAD8E50120E94981F88B
:104380002D0001F12D00FEF737FAFCF7C4FACDE558
:104390000020E44981F82D0001F12D00FEF72CFAF0
:1043A000FCF7B9FAF7E30120DF4908700020DF4984
:1043B0004870FCF7B0FAEEE30120DB490870D948F9
:1043C000407E1030DA490C5C302C20DB392C1EDCAE
:1043D000A4F13000C4B2D548407800EB800040061C
:1043E000000ED2494870084640782044487008467C
:1043F00040780F2801DD0F204870CC484178C9482B
:1044000080F82E102D30FEF7F7F9FCF784FAC2E39E
:104410000121C44880F82F102D30FEF7EDF9FCF78C
:104420007AFAB8E30021BF4880F82F102D30FEF74C
:10443000E3F9FCF770FAAEE30120BE4908700020F2
:10444000BA49C870FCF767FAA5E30120B9490870BA
:10445000B448407E1030B6490C5C302C20DB392C3F
:104460001EDCA4F13000C4B2B048C07800EB80007C
:104470004006000EAD49C8700846C0782044C87098
:104480000846C0780F2801DD0F20C870A748C17802
:10449000A44880F830102D30FEF7AEF9FCF73BFA57
:1044A00079E301219F4880F831102D30FEF7A4F9FF
:1044B000FCF731FA6FE300219A4880F831102D3073
:1044C000FEF79AF9FCF727FA65E301209A4908708C
:1044D000002096494871FCF71EFA5CE301209649DA
:1044E00008709048407E103091490C5C8F484079AC
:1044F0000F2810DA8D484179801D4454801F40797F
:10450000401C8A494871FEF775FB86482D30FEF73E
:1045100073F9FCF700FA3EE30020FEF73BF9FCF7E5
:10452000FAF938E30120FEF735F9FCF7F4F932E344
:104530000220FEF72FF9FCF7EEF92CE30320FEF73B
:1045400029F9FCF7E8F926E34FF4966001F088FBBF
:104550004FF49660FCF76CFAFCF7DDF91BE34FF4BF
:10456000965001F07DFB4FF49650FCF761FAFCF792
:10457000D2F910E34FF4165001F072FB4FF41650CD
:10458000FCF756FAFCF7C7F905E34FF4615001F068
:1045900067FB4FF46150FCF74BFAFCF7BCF9FAE209
:1045A0004FF4964001F05CFB4FF49640FCF740FA64
:1045B000FCF7B1F9EFE24FF4164001F051FB4FF474
:1045C0001640FCF735FAFCF7A6F9E4E24FF4614037
:1045D00001F046FB4FF46140FCF72AFAFCF79BF927
:1045E000D9E24FF4E13001F03BFB4FF4E130FCF74E
:1045F0001FFAFCF790F9CEE2002201212E20FDF7F0
:1046000023FEFCF788F9C6E2012200212E20FDF7E7
:104610001BFEFCF780F9BEE2002201212F20FDF7EE
:1046200013FEFCF778F9B6E2012200212F20FDF7F6
:104630000BFEFCF770F9AEE2002201213020FDF7FD
:1046400003FEFCF768F9A6E2012200213020FDF705
:10465000FBFDFCF760F99EE2002201213120FDF70D
:10466000F3FDFCF758F996E2012200213120FDF715
:10467000EBFDFCF750F98EE2002201213220FDF71C
:10468000E3FDFCF748F986E2012200213220FDF724
:10469000DBFDFCF740F97EE2002201213320FDF72B
:1046A000D3FDFCF738F976E2012200213320FDF733
:1046B000CBFDFCF730F96EE200213420FDF7ECFD74
:1046C000FCF729F967E204213420FDF7E5FDFCF74A
:1046D00022F960E220213520FDF7DEFDFCF71BF911
:1046E00059E2FF213520FDF7D7FDFCF714F952E21E
:1046F000002201213620FDF7A7FDFCF70CF94AE264
:10470000012200213620FDF79FFDFCF704F942E26B
:1047100000213720FDF7C0FDFCF7FDF83BE200006B
:10472000F2060020480200201900002004070020A3
:10473000190700201A0000201B0000200421372048
:10474000FDF7AAFDFCF7E7F825E220213820FDF768
:10475000A3FDFCF7E0F81EE2FF213820FDF79CFDE9
:10476000FCF7D9F817E2002201213920FDF76CFD92
:10477000FCF7D1F80FE2012200213920FDF764FD9A
:10478000FCF7C9F807E200213A20FDF785FDFCF7A8
:10479000C2F800E204213A20FDF77EFDFCF7BBF8E9
:1047A000F9E120213B20FDF777FDFCF7B4F8F2E1B9
:1047B000FF213B20FDF770FDFCF7ADF8EBE1002297
:1047C00001213C20FDF740FDFCF7A5F8E3E10122C3
:1047D00000213C20FDF738FDFCF79DF8DBE10021CE
:1047E0003D20FDF759FDFCF796F8D4E104213D206A
:1047F000FDF752FDFCF78FF8CDE120213E20FDF7BB
:104800004BFDFCF788F8C6E1FF213E20FDF744FD93
:10481000FCF781F8BFE1002202213C20FDF714FDE6
:10482000FCF779F8B7E1022200213C20FDF70CFDEE
:10483000FCF771F8AFE1002201213F20FDF704FDF4
:10484000FCF769F8A7E1012200213F20FDF7FCFCFD
:10485000FCF761F89FE1002201214020FDF7F4FC04
:10486000FCF759F897E1012200214020FDF7ECFC0C
:10487000FCF751F88FE100214120FDF70DFDFCF719
:104880004AF888E104214120FDF706FDFCF743F8D2
:1048900081E120214220FDF7FFFCFCF73CF87AE1A2
:1048A000FF214220FDF7F8FCFCF735F873E1002208
:1048B00001214320FDF7C8FCFCF72DF86BE1012234
:1048C00000214320FDF7C0FCFCF725F863E100213F
:1048D0004420FDF7E1FCFCF71EF85CE104214420D4
:1048E000FDF7DAFCFCF717F855E120214520FDF72C
:1048F000D3FCFCF710F84EE1FF214520FDF7CCFC7E
:10490000FCF709F847E1002201214620FDF79CFC55
:10491000FCF701F83FE1012200214620FDF794FC5D
:10492000FBF7F9FF37E100214720FDF7B5FCFBF766
:10493000F2FF30E104214720FDF7AEFCFBF7EBFF6F
:1049400029E120214820FDF7A7FCFBF7E4FF22E145
:10495000FF214820FDF7A0FCFBF7DDFF1BE1002253
:1049600001214920FDF770FCFBF7D5FF13E101227F
:1049700000214920FDF768FCFBF7CDFF0BE100218A
:104980004A20FDF789FCFBF7C6FF04E104214A2019
:10499000FDF782FCFBF7BFFFFDE020214B20FDF778
:1049A0007BFCFBF7B8FFF6E0FF214B20FDF774FC22
:1049B000FBF7B1FFEFE0002201214C20FDF744FCA2
:1049C000FBF7A9FFE7E0012200214C20FDF73CFCAA
:1049D000FBF7A1FFDFE000214D20FDF75DFCFBF7B9
:1049E0009AFFD8E004214D20FDF756FCFBF793FF1A
:1049F000D1E020214E20FDF74FFCFBF78CFFCAE0F1
:104A0000FF214E20FDF748FCFBF785FFC3E00022A5
:104A100001214F20FDF718FCFBF77DFFBBE00122D1
:104A200000214F20FDF710FCFBF775FFB3E00022DB
:104A300001215020FDF708FCFBF76DFFABE00122E0
:104A400000215020FDF700FCFBF765FFA3E00022EA
:104A500001215120FDF7F8FBFBF75DFF9BE00122F0
:104A600000215120FDF7F0FBFBF755FF93E00021FB
:104A70005220FDF711FCFBF74EFF8CE00421522081
:104A8000FDF70AFCFBF747FF85E020215320FDF7E7
:104A900003FCFBF740FF7EE0FF215320FDF7FCFB0A
:104AA000FBF739FF77E0002201215420FDF7CCFB12
:104AB000FBF731FF6FE0012200215420FDF7C4FB1A
:104AC000FBF729FF67E0002201215520FDF7BCFB21
:104AD000FBF721FF5FE0012200215520FDF7B4FB29
:104AE000FBF719FF57E00020FDF764FEFDF7AEFC71
:104AF00032498870FBF70FFF4DE00120FDF75AFEA9
:104B0000FDF7A4FC2D498870FBF705FF43E0022068
:104B1000FDF750FEFDF79AFC28498870FBF7FBFE75
:104B200039E00320FDF746FEFDF790FC234988702D
:104B3000FBF7F1FE2FE00420FDF73CFEFDF786FCBD
:104B40001E498870FBF7E7FE25E00520FDF732FEE1
:104B5000FDF77CFC19498870FBF7DDFE1BE00620A1
:104B6000FDF728FEFDF772FC14498870FBF7D3FEB1
:104B700011E00720FDF71EFEFDF768FC0F49887065
:104B8000FBF7C9FE07E0FEF70BFDFEF763FCFDF740
:104B900031FF00E000BF00BF0848407E0F300849E9
:104BA00008800020FBF7DCFE00200649087006495B
:104BB0000870FBF763FEFFF708B80000480200200A
:104BC0003E0100204401002045010020F0B50B46C5
:104BD000002100240025244E366806F4E066B6F570
:104BE000E06F02D100BF042526E01F4E366806F4B0
:104BF000E066B6F5C06F02D1012403251CE01A4E11
:104C0000366806F4E066B6F5A06F02D102240225EC
:104C100012E0154E366806F4E066B6F5806F02D1F4
:104C20000324012508E0104E366806F4E066B6F568
:104C3000407F01D104240025C4F1040603FA06F1E3
:104C4000C5F104070F26FE40164031430901074E07
:104C5000315400F01F070126BE404711BF0007F185
:104C6000E027C7F80061F0BD0CED00E000E400E0D3
:104C700002490143024A1160704700000000FA0532
:104C80000CED00E01148007801281DD11048407E4D
:104C90000F300F4991F82C100844401C0C4991F832
:104CA0004910022900D100E001210844094909887E
:104CB000081A022808D10648407E0F300649085CD1
:104CC000242801D1012070470020FCE71B000020B0
:104CD000480200203E0100201907002010B50246BE
:104CE0000C48C078A8B90C480378001D00EBC3003D
:104CF000828009480378001D40F83310031F1B7899
:104D0000581CC31700EB93739B10A0EB8303024C5A
:104D1000237010BD48020020440A00202A4A12686D
:104D200022F00302284B1A601A46126802431A60E6
:104D3000264A126842F00402244B1A604FF0E02227
:104D40001269234B1A60234A12685A60214A121DC5
:104D500012689A601F4A08321268DA604FF0E02247
:104D600012691D4B1A404FF0E0231A611B4A194B80
:104D700080331A606FF480621B1D1A60D2124FF0EC
:104D8000E023C3F8882109B930BF02E040BF20BF4B
:104D900020BF0F4A12684FF0E0231A610C4A526894
:104DA0000C4B1A600A4A92684FF0E023C3F80421C2
:104DB000074AD268C3F80821044A126822F00402A4
:104DC000024B1A60704700000070004010ED00E0D8
:104DD000D002002000E100E00400010019EFFFB75D
:104DE0002449496821F44041224A51601146096B27
:104DF00021F480711163052839D2DFE800F0030A3D
:104E000014202C001B49096B21F48071194A11638D
:104E10002EE018494968174A51601146096B41F460
:104E20008071116324E01349496841F48041114ABB
:104E300051601146096B41F48071116318E00D490E
:104E4000496841F400410B4A51601146096B41F435
:104E5000807111630CE00749496841F44041054AFB
:104E600051601146096B41F48071116300E000BF8D
:104E700000BF7047001002402DE9F04F8FB004468C
:104E80004FF0000CE0460020002200258146CDF8BE
:104E900038900021CDF83490CDF83090CDF82C909A
:104EA0000023CDF82890CDF82490CDF8209000264E
:104EB00000270FF24C2999E8004CD9F80C90CDE965
:104EC00005BECDF810A0CDF81C900FF2382ADAE913
:104ED000009ACDE9029A0FF22C2ADAE9009ACDE97C
:104EE000009ADFF82C92D9F80490C9F3810CBCF138
:104EF000000F06D0BCF1010F05D0BCF1020F3FD16D
:104F000003E0844A3EE0834A3CE0DFF80492D9F8AB
:104F10000490C9F38343DFF8F891D9F80490C9F3FA
:104F2000C069CDF82890DDF82890B9F1000F01D0C4
:104F3000113300E09B1CDFF8D891D9F80490C9F335
:104F40000049CDF82490DDF82490B9F1000F12D07B
:104F5000DFF8BC91D9F82C9009F00F0909F101098B
:104F6000CDF82090DFF8ACA1DDF82090BAFBF9F97C
:104F700009FB03F203E0DFF8A09103FB09F201E073
:104F8000644A00BF00BFDFF88891D9F80490C9F3E4
:104F900003160DF1100919F8067022FA07F5DFF86B
:104FA0007091D9F80490C9F302260DF1080919F897
:104FB000067025FA07F9CDF83890DFF85491D9F842
:104FC0000490C9F3C2261DF8067025FA07F1072CD4
:104FD00072D2DFE804F00406080A0C475B001046B2
:104FE00089E0284687E00E9885E0084683E0DFF8F0
:104FF0002091D9F8309009F48079B9F5807F04D0F8
:10500000DFF81891CDF834902AE0DFF80491D9F850
:105010000490C9F38138B8F1000F09D0B8F1010F3D
:105020000BD0B8F1020F0DD0B8F1030F16D110E07C
:105030004FEA5109CDF8349011E04FEA9109CDF8CB
:1050400034900CE04FF00609B1FBF9F9CDF834903B
:1050500005E04FEAD109CDF8349000E000BF00BF71
:105060000D9848E0DFF8A890D9F8309009F0400991
:10507000B9F1400F04D048F21209CDF8309003E0A6
:105080004FF40049CDF830900C9834E0DFF8809070
:10509000D9F8309009F00309B9F1000F01D10B9153
:1050A00026E0DFF86C90D9F8309009F00309B9F1E7
:1050B000010F02D10B921BE01CE0DFF85490D9F8ED
:1050C000309009F00309B9F1020F04D14FF40049FF
:1050D000CDF82C900CE0DFF83890D9F8309009F03A
:1050E0000309B9F1030F03D1DFF82890CDF82C9014
:1050F0000B9800E000BF00BF0FB0BDE8F08F0000CC
:105100000000000000000000010203040607080977
:105110000010024000127A0000093D00809FD50077
:105120000146074A02EB9110006801F01F030122BB
:105130009A40104008B1012070470020FCE70000B1
:1051400000100240064A02EB9011096800F01F03AC
:1051500001229A401143024B03EB901211607047F9
:1051600000100240064A02EB9011096800F01F038C
:1051700001229A401143024B03EB901211607047D9
:1051800000100240064A02EB9011096800F01F036C
:1051900001229A409143024B03EB90121160704739
:1051A00000100240064A02EB9011096800F01F034C
:1051B00001229A401143024B03EB90121160704799
:1051C0000010024001460020044A506820F003000D
:1051D00041EA0002014B5A60704700000010024093
:1051E0000248406800F00C007047000000100240C8
:1051F0000549496821F44001034A51601146496854
:1052000001435160704700000010024010B5124A7F
:105210005278114B1B789A4203D100220A80026017
:1052200010BD0D4A5378121D02EBC30292880A800A
:10523000094A5378121D52F833200260064B5B78FE
:105240005A1CD31702EB93739B10A2EB8303024CFF
:10525000637000BFE4E70000440A0020FEB5054685
:105260000C467E208DF8000000208DF801000720FC
:105270008DF8020001208DF8030028128DF804003B
:10528000E8B28DF805008DF80640201DC1B20DF181
:105290000200FEF761F9074638128DF80700F8B2F0
:1052A0008DF8080001201349087000201249087089
:1052B00000260EE01DF80610104800F036FC00BF76
:1052C00040F206710D4800F05AFC0128F8D1701C1C
:1052D000C6B2092EEEDB6420FEF7DAF9A01CC1B2DB
:1052E000074800F0A9F808B10120FEBD0024002005
:1052F000FBE700003B0100203C010020003801409A
:10530000D509002010B500200BE009490A5C0949C5
:105310000B880988491C074C21800749CA54411C45
:10532000C8B203491D3991F82C108142EDDC10BD43
:10533000650200203E0100201907002010B500F092
:1053400005F80148007810BD3A01002010B500248E
:1053500000BF334800687828FBD3324800680A2829
:1053600003D902213048FEF7B8FB304840780128C5
:1053700036D1FBF765FA022805D12D48007880F078
:1053800001002B4908702A48007808BB1BE0012067
:10539000FEF77EF92046611C8CB2B0F57A7F07DDFE
:1053A00002212148FEF79BFB00201D4908600EE00A
:1053B000FBF746FA022806D11D48007880F001006C
:1053C0001B49087003E01B4800780028DFD025E067
:1053D00002211548FEF783FB0020114908601DE0FB
:1053E0000BE0FBF7F4FA0520FEF752F92046611CAA
:1053F0008CB2B0F57A7F00DD08E00E48007828B95D
:1054000020210948FEF76DFB0028EAD000BF0221E9
:105410000548FEF764FB00200149086010BD00004C
:10542000240000202800002000040048480200203A
:10543000480100203A010020F0B504460F462678C6
:105440004FF6FF7000EA062660780643B6F5007F47
:1054500001D00020F0BD002F15DD3946A01CFEF75D
:105460007BF8054609480078801E0949085CB0EBC6
:10547000252F08D105480078401E085CE9B2884213
:1054800001D10120E6E70020E4E700003C01002014
:10549000D509002001460A784FF6FF7000EA022283
:1054A00048780243B2F5007F01D000207047887829
:1054B00008B10020FAE7C878012801D00020F5E7FC
:1054C000087908B10020F1E74879332804D18879B8
:1054D000312801D10120E9E70020E7E7016821F048
:1054E000400101607047016841F040010160704770
:1054F0000146C86880B27047C16070470246906834
:10550000084008B1012070470020FCE70246002057
:10551000106800F441500B6818434B6818438B68BF
:105520001843CB6818430B6918434B6918438B69C0
:1055300018431060D36923F40063D36170470000FF
:1055400000200021254A126842F48032234B1A6061
:1055500000BF401C214A126802F4003111B9B0F5B5
:10556000006FF6D11D4A126802F4003202B970478A
:105570001A4A5268194B5A601A4652685A601A46BB
:1055800052685A601A465268154B1A40134B5A60BB
:105590001A46526842F4E8125A601A46126842F0FB
:1055A00080721A6000BF0D4A126802F00072002A71
:1055B000F9D00A4A526822F00302084B5A601A4690
:1055C000526842F002025A6000BF044A526802F078
:1055D0000802002AF9D000BFC9E70000001002400D
:1055E000FFFFC27710B5FFF7ABFF10BD0249096896
:1055F0008143014A1160704710ED00E0016841F0FD
:10560000800101607047000010B531B1012941D01F
:1056100002297BD0032978D1B2E0036A23F0010389
:105620000362036A148823430362036A23F00203BC
:105630000362036A948823430362624B984208D052
:10564000614B984205D0614B984202D0604B984222
:105650001FD1036A23F004030362036A54882343BF
:105660000362036A23F008030362036AD4882343B6
:105670000362436823F480734360436814892343BF
:105680004360436823F400734360436854892343B1
:10569000436095E0036A23F010030362036A1488F1
:1056A00043EA04130362036A23F020030362036ADC
:1056B000948843EA04130362424B984223D1036A5D
:1056C00023F040030362036A548843EA041303622D
:1056D000036A23F080030362036AD48843EA041355
:1056E0000362436823F4806343604368148943EA98
:1056F00084034360436823F4006343604368548930
:1057000043EA840343605BE000E058E0036A23F46B
:1057100080730362036A148843EA04230362036A02
:1057200023F400730362036A948843EA0423036248
:10573000244B984223D1036A23F480630362036AF3
:10574000548843EA04230362036A23F40063036278
:10575000036AD48843EA04230362436823F4805332
:1057600043604368148943EA04134360436823F4A5
:10577000005343604368548943EA041343601FE0C5
:10578000036A23F480530362036A148843EA0433F0
:105790000362036A23F400530362036A948843EAB2
:1057A00004330362074B984208D1436823F48043D3
:1057B00043604368148943EA8413436000E000BFF8
:1057C00000BF10BD002C01400040014000440140DA
:1057D0000048014031B101290CD0022913D003291E
:1057E00022D118E0836923F0700383618369134336
:1057F00083611AE0836923F4E0438361836943EAA8
:105800000223836111E0C36923F07003C361C3699C
:105810001343C36109E0C36923F4E043C361C3696F
:1058200043EA0223C36100E000BF00BF704731B10B
:1058300001290CD0022913D0032922D118E0836951
:1058400023F0080383618369134383611AE083694A
:1058500023F400638361836943EA0223836111E0D7
:10586000C36923F00803C361C3691343C36109E03B
:10587000C36923F40063C361C36943EA0223C361BC
:1058800000E000BF00BF704710B504463349601AFE
:105890008C4217D00CDCB4F1804F1CD0304820442F
:1058A00010B3B0F5406F28D0B0F5E05F52D12DE0D5
:1058B000B0F5A05F33D0B0F5C05F39D0B0F5E05F90
:1058C00048D13EE040F20B30FFF76CFC40F20B3069
:1058D000FFF758FC3FE04FF48060FFF763FC4FF4A4
:1058E0008060FFF74FFC36E040F20140FFF75AFCC2
:1058F00040F20140FFF746FC2DE040F20440FFF784
:1059000051FC40F20440FFF73DFC24E04FF481607D
:10591000FFF748FC4FF48160FFF734FC1BE04FF4C5
:105920004470FFF73FFC4FF44470FFF72BFC12E08C
:1059300040F21130FFF736FC40F21130FFF722FC45
:1059400009E040F21230FFF72DFC40F21230FFF771
:1059500019FC00E000BF00BF10BD0000002C01409A
:1059600000FCFFBF016841F00101016070470000C9
:105970000A8882621D4A904205D0B0F1804F02D061
:105980001B4A90420CD1026822F0100202600268A9
:105990004B881A43026002688B881A43026007E052
:1059A000026822F01002026002688B881A430260CB
:1059B0008A68C2620F4A904207D0026822F440729D
:1059C000026002688B891A430260084A904208D03C
:1059D000094A904205D0094A904202D0084A9042B2
:1059E00001D18A7B0263426942617047002C014009
:1059F000000400400010004000400140004401400D
:105A000000480140C2680A43C260704702698A4385
:105A10000261704710B50246002300241069084057
:105A200083B2D068084084B213B10CB1012010BD1C
:105A30000020FCE71248007803281ED11148407E60
:105A40000F30114908800020104908701049088063
:105A50001049087010490870094801780A480288FE
:105A60000088401C084B18800C4881540C48007872
:105A7000401C0B490870012070470020FCE7000023
:105A80003D010020480200203E010020440100208A
:105A900040010020450100203A01002019070020A4
:105AA000460100202DE9F04704460D460027B84680
:105AB000B94600261948204438B1B0F5744F09D1D1
:105AC0000620FFF7D9F9074605E00220FFF7D4F9D1
:105AD000074600E000BF00BF206800F4004070B13E
